:100000000C945D000C9485000C9485000C94850084
:100010000C9485000C9485000C9485000C9485004C
:100020000C9485000C9485000C9485000C9423039B
:100030000C9485000C9485000C9485000C9485002C
:100040000C9400050C9485000C94C6040C948B044D
:100050000C9485000C9485000C9485000C9485000C
:100060000C9485000C9485000000000024002700FB
:100070002A0000000000250028002B0004040404CE
:100080000404040402020202020203030303030342
:10009000010204081020408001020408102001021F
:1000A00004081020000000070002010000030406FD
:1000B00000000000000000006B0511241FBECFEF00
:1000C000D8E0DEBFCDBF11E0A0E0B1E0E6EEF2E1A6
:1000D00002C005900D92A83CB107D9F723E0A8EC27
:1000E000B1E001C01D92AD33B207E1F710E0CDE5FC
:1000F000D0E004C02197FE010E946B09CC35D107E6
:10010000C9F70E94C9050C94F9080C9400000895E1
:1001100090E0FC01EC55FF4F2491FC01E057FF4FAC
:100120003491FC01E458FF4FE491EE2309F43CC004
:10013000222339F1233091F038F42130A9F0223014
:1001400001F584B58F7D12C0263091F02730A1F0E3
:100150002430B9F4809180008F7D03C080918000AD
:100160008F77809380000DC084B58F7784BD09C0E0
:100170008091B0008F7703C08091B0008F7D809315
:10018000B000F0E0EE0FFF1FEE58FF4FA591B491C5
:100190009FB7F894611104C08C913095382302C048
:1001A000EC913E2B3C939FBF08958F929F92AF920C
:1001B000BF92EF92FF920F931F93CF93DF937C0137
:1001C000142FFC010081F8E00F9FE0011124FE01D3
:1001D000E350FE4F74836383442309F471C060329B
:1001E00082E078070CF03FC0CB01653B710514F04D
:1001F00084EB90E0F7012181A8E8B0E04D01821A7C
:10020000910827FD9394D401AA0FBB1FAA0FBB1F0F
:100210004D01BB0FAA08BB08428128E532E0241B30
:10022000310947FD3395220F331F220F331FA901D8
:10023000330F660B770B9A01AB01281939094A096C
:100240005B09DC0197FF02C0A0E0B0E00E94260934
:1002500024EB30E040E050E00E94FC08820E931E48
:10026000A41EB51EB4010C3008F09FC0F701218117
:1002700088E890E0821B910927FD9395880F991FCC
:10028000880F991F681779077CF0228188E592E032
:10029000821B910927FD9395880F991F880F991F3D
:1002A000681779070CF4CB012FB7F894C350DE4FD1
:1002B0000297880F991F9E838D831F832FBF75C060
:1002C0006032F2E07F070CF03FC0CB01653B710567
:1002D00014F084EB90E0F7012181A8E8B0E04D0133
:1002E000821A910827FD9394D401AA0FBB1FAA0F6D
:1002F000BB1F4D01BB0FAA08BB08428128E532E0B5
:10030000241B310947FD3395220F331F220F331F62
:10031000A901330F660B770B9A01AB012819390934
:100320004A095B09DC0197FF02C0A0E0B0E00E942F
:10033000260924EB30E040E050E00E94FC08820EE9
:10034000931EA41EB51EB401FE01E350FE4F74833C
:1003500063830C3050F5F701218188E890E0821B1F
:10036000910927FD9395880F991F880F991F68178A
:10037000790784F0828128E532E0281B310987FD66
:100380003395220F331F220F331FCB012617370758
:100390000CF4C9012FB7F894C350DE4F0297880FB1
:1003A000991F9A8389832FBF1F82DF91CF911F915D
:1003B0000F91FF90EF90BF90AF909F908F90089516
:1003C000CF93DF93DC018C918C3008F067C0CB01B8
:1003D0009927FC01E057FF4F2491FC01E458FF4F9F
:1003E0008491882399F090E0880F991FFC01E859C7
:1003F000FF4FC591D491FC01EE58FF4F8591949128
:100400008FB7F894E881E22BE8838FBF8C9198E056
:10041000899FF0011124E350FE4F6F739081907C0F
:10042000692B608311961C92119712961C92129759
:100430006CE00E945F099CE0899FA001112420E0EC
:1004400030E0FA01E20FF31F93E0EE0FFF1F9A95E1
:10045000E1F7E350FE4F908196FD16C02F5F3F4FAE
:100460002C30310571F781110FC01092800082E0AD
:10047000809381001092850010928400B19A80913F
:100480006F00826080936F00EC9188E0E89FF0013C
:100490001124E350FE4F8081806480838C91DF9132
:1004A000CF9108950F931F93CF93DF93FC01A685FF
:1004B000B7858D01005C1F4FE80188819981019605
:1004C0008F739927AD014E5B5F4FEA012881398117
:1004D00028173907D1F3E80128813981A20FB31F0A
:1004E0006C93A685B785A05CBF4F11969C938E93A5
:1004F000A689B7892C9181E090E0078C02C0880F13
:10050000991F0A94E2F7822B8C9381E081A30488DF
:10051000F589E02D80818064808381E090E0DF9127
:10052000CF911F910F910895FC0181A1882329F09B
:10053000A489B5898C9186FFFBCF11A20895FC0197
:10054000A485B585FD01E05CFF4F208131813296A5
:10055000808191812817390779F080819181A80FD6
:10056000B91F8C91208131812F5F3F4F2F7333272B
:100570003183208390E008958FEF9FEF0895DC0191
:100580001C96ED91FC911D97DF01A05CBF4F2D9152
:100590003C91119712968D919C91119728173907CC
:1005A00039F08D919C91E80FF91F808190E00895BA
:1005B0008FEF9FEF0895FC0124853585F901E05CFC
:1005C000FF4F80819181329620813181821B930B74
:1005D0008F739927089585EE92E00C94DB02CF92F9
:1005E000DF92EF92FF920F931F93CF93DF936C01F3
:1005F000EB017B01E40EF51E00E010E0CE15DF05F7
:1006000061F06991D601ED91FC910190F081E02DAE
:10061000C6010995080F191FF1CFC801DF91CF91CD
:100620001F910F91FF90EF90DF90CF9008952FB71B
:10063000F8946091CD017091CE018091CF0190919D
:10064000D0012FBF08951F920F920FB60F92112461
:100650002F933F934F935F936F937F938F939F93CA
:10066000AF93BF93EF93FF938091FB0187FF05C08A
:10067000109285001092840016C02091FB01022E7A
:10068000000C330B8091FC0190E0281739075CF4D3
:10069000E091FB0128E0E202F0011124E350FE4F5B
:1006A000808186FD15C08091FB018F5F8093FB01E7
:1006B0002091FB01022E000C330B8091FC0190E095
:1006C000281739079CF48091FB018C3034F10EC05F
:1006D000E091FB0128E0E202F0011124E350FE4F1B
:1006E000808160E08F730E948800DDCF809184005C
:1006F0009091850084349C4918F480E49CE905C0FD
:100700008091840090918500049690938900809355
:1007100088008FEF8093FB01EDC0E091FB0188E042
:10072000E802F0011124E350FE4F8781882309F489
:10073000B5C0A091FB01E091FB0188E0A802D001C7
:100740001124A350BE4F28E0E202F0011124E3502F
:10075000FE4F15962D913C91169781819281A09123
:10076000FB01E091FB018217930708F04BC088E082
:10077000E802F0011124E350FE4F28E0A202D0016C
:100780001124A350BE4F17962C9181819281820F24
:10079000911D92838183A091FB01E091FB0188E090
:1007A000A802D0011124A350BE4F28E0E202F001BC
:1007B0001124E350FE4F15962D913C91169781819F
:1007C00092818217930708F469C0E091FB01A09120
:1007D000FB0188E0E802F0011124E350FE4F28E01D
:1007E000A202D0011124A350BE4F15968D919C9169
:1007F000169792838183E091FB0188E0E802F00183
:10080000112449C028E0E202F0011124E350FE4F18
:1008100088E0A802D0011124A350BE4F17962C9156
:1008200081819281821B910992838183A091FB0136
:10083000E091FB0128E0A202D0011124A350BE4F99
:1008400088E0E802F0011124E350FE4F15962D9147
:100850003C9116978181928128173907F8F0E09131
:10086000FB01A091FB0128E0E202F0011124E3501A
:10087000FE4F88E0A802D0011124A350BE4F159668
:100880008D919C91169792838183E091FB0128E0E2
:10089000E202F0011124E350FE4F17822091840000
:1008A00030918500E091FB0188E0E802F00111241D
:1008B000E350FE4F81819281820F931F90938900B4
:1008C00080938800E091FB0128E0E202F00111240E
:1008D000E350FE4F808186FF0DC0E091FB0188E070
:1008E000E802F0011124E350FE4F808161E08F7334
:1008F0000E948800FF91EF91BF91AF919F918F91DE
:100900007F916F915F914F913F912F910F900FBE0B
:100910000F901F9018951F920F920FB60F921124EF
:100920002F933F938F939F93EF93FF9320919D027B
:1009300030919E0280919F029091A0022817390762
:1009400031F48091C1008F7D8093C10014C0E0918B
:100950009F02F091A002E35AFD4F208180919F02F7
:100960009091A00201968F7399279093A002809393
:100970009F022093C600FF91EF919F918F913F912D
:100980002F910F900FBE0F901F9018951F920F92EE
:100990000FB60F9211242F934F935F938F939F93D2
:1009A000EF93FF938091C00082FD1CC02091C60090
:1009B0008091E1029091E2024091E3025091E402C1
:1009C00001968F7399274817590771F0E091E1025A
:1009D000F091E202EF55FD4F20839093E202809365
:1009E000E10202C08091C600FF91EF919F918F912B
:1009F0005F914F912F910F900FBE0F901F90189500
:100A00001F920F920FB60F9211242F933F938F9343
:100A10009F93AF93BF938091CD019091CE01A09110
:100A2000CF01B091D0013091CC0123E0230F2D37BD
:100A300020F40196A11DB11D05C026E8230F0296E2
:100A4000A11DB11D2093CC018093CD019093CE01C7
:100A5000A093CF01B093D0018091C8019091C901BA
:100A6000A091CA01B091CB010196A11DB11D809347
:100A7000C8019093C901A093CA01B093CB01BF9163
:100A8000AF919F918F913F912F910F900FBE0F903B
:100A90001F901895DC01E091FC01EC30C8F481E076
:100AA0008E0F8093FC01EC9388E0E89FF001112405
:100AB000E350FE4F88EB9BE09283818315961C9256
:100AC000159780E091E014969C938E931397089568
:100AD0008FEF8C930895E5EEF2E01382128288EE98
:100AE00093E0A0E0B0E084839583A683B7838CEB8A
:100AF00091E09183808381EA92E0958784878DE5F8
:100B000092E09787868785EC90E0918B808B84ECD0
:100B100090E0938B828B80EC90E0958B848B81ECC2
:100B200090E0978B868B82EC90E0918F808F86ECA3
:100B300090E0938F828F84E0848F83E0858F87E0BD
:100B4000868F85E0878F81E080A387E393E00E9412
:100B50004A0581E393E00E944A058BE293E00E94FC
:100B60004A0585E293E00E944A058FE193E00E94E6
:100B70004A0589E193E00E944A0583E193E00E94DF
:100B80004A058DE093E00E944A0587E093E00C94CB
:100B90004A05CF93DF93CDB7DEB7A1970FB6F89490
:100BA000DEBF0FBECDBF789484B5826084BD84B5AE
:100BB000816084BD85B5826085BD85B5816085BD58
:100BC00080916E00816080936E0010928100809110
:100BD0008100826080938100809181008160809398
:100BE0008100809180008160809380008091B100BD
:100BF00084608093B1008091B00081608093B000E8
:100C000080917A00846080937A0080917A0082607B
:100C100080937A0080917A00816080937A0080913D
:100C20007A00806880937A001092C10069E070E0D9
:100C300087E393E00E94E00168E070E081E393E0E5
:100C40000E94E0016AE070E08BE293E00E94E00124
:100C500067E070E085E293E00E94E00166E070E00A
:100C60008FE193E00E94E00163E070E089E193E0AE
:100C70000E94E00164E070E083E193E00E94E00103
:100C800065E070E08DE093E00E94E0016BE070E0D1
:100C900087E093E00E94E00148EC60E070E087E3C9
:100CA00093E00E94D50048EC64EB70E081E393E0B0
:100CB0000E94D50048EC60E070E08BE293E00E9477
:100CC000D50048EC60E070E085E293E00E94D5003A
:100CD00048EC60E070E08FE193E00E94D50048ECC2
:100CE00060E070E089E193E00E94D50048EC64EB9D
:100CF00070E083E193E00E94D50048EC64EB70E083
:100D00008DE093E00E94D500E091F902F091FA02A3
:100D100081E090E09C010090050302C0220F331F88
:100D20000A94E2F72083E091F502F091F602108236
:100D3000E091F702F091F8022FEC20831092060365
:100D4000E091FB02F091FC0240819C0100900103C4
:100D500002C0220F331F0A94E2F7242B2083E09174
:100D6000FB02F091FC0240819C010090020302C052
:100D7000220F331F0A94E2F7242B2083E091FB0219
:100D8000F091FC0240819C010090030302C0220FFD
:100D9000331F0A94E2F7242B2083E091FB02F091A9
:100DA000FC0220810090040302C0880F991F0A945E
:100DB000E2F78095822380831AE0812E912CA12C6A
:100DC000B12C0E9417036093F7017093F801809390
:100DD000F9019093FA010091F5011091F601C0908C
:100DE000F701D090F801E090F901F090FA01F801D4
:100DF000EE0FFF1FEE0FFF1FEC56FE4F808191811B
:100E0000A281B381C816D906EA06FB0608F4EEC132
:100E10000E9417034090F1015090F2016090F3019D
:100E20007090F4019B01AC0124193509460957095A
:100E300029013A0134E14316510461047104C0F000
:100E40006093F1017093F2018093F3019093F401A8
:100E5000C801880F991FFC01EC57FE4FDC01AC580C
:100E6000BE4F6D917C91408187E393E00E94D50055
:100E70000E9417034090ED015090EE016090EF0149
:100E80007090F0019B01AC012419350946095709FE
:100E900029013A0134E14316510461047104C0F0A0
:100EA0006093ED017093EE018093EF019093F00158
:100EB000C801880F991FFC01EC57FE4FDC01AC59AB
:100EC000BE4F6D917C91408181E393E00E94D500FB
:100ED0000E9417034090E9015090EA016090EB01F5
:100EE0007090EC019B01AC012419350946095709A2
:100EF00029013A0134E14316510461047104C0F040
:100F00006093E9017093EA018093EB019093EC0107
:100F1000C801880F991FFC01EC57FE4FDC01AC5A49
:100F2000BE4F6D917C91408185E293E00E94D50097
:100F30000E9417034090E5015090E6016090E701A0
:100F40007090E8019B01AC01241935094609570945
:100F500029013A0134E14316510461047104C0F0DF
:100F60006093E5017093E6018093E7019093E801B7
:100F7000C801880F991FFC01EC57FE4FDC01AC5BE8
:100F8000BE4F6D917C9140818BE293E00E94D50031
:100F90000E9417034090E1015090E2016090E3014C
:100FA0007090E4019B01AC012419350946095709E9
:100FB00029013A0134E14316510461047104C0F07F
:100FC0006093E1017093E2018093E3019093E40167
:100FD000C801880F991FFC01EC57FE4FDC01AC5C87
:100FE000BE4F6D917C9140818FE193E00E94D500CE
:100FF0000E9417034090DD015090DE016090DF01F8
:101000007090E0019B01AC0124193509460957098C
:1010100029013A0134E14316510461047104C0F01E
:101020006093DD017093DE018093DF019093E00116
:10103000C801880F991FFC01EC57FE4FDC01AC5D25
:10104000BE4F6D917C91408189E193E00E94D50073
:101050000E9417034090D9015090DA016090DB01A3
:101060007090DC019B01AC01241935094609570930
:1010700029013A0134E14316510461047104C0F0BE
:101080006093D9017093DA018093DB019093DC01C6
:10109000C801880F991FFC01EC57FE4FDC01AC5EC4
:1010A000BE4F6D917C91408183E193E00E94D50019
:1010B0000E9417034090D5015090D6016090D7014F
:1010C0007090D8019B01AC012419350946095709D4
:1010D00029013A0134E14316510461047104C0F05E
:1010E0006093D5017093D6018093D7019093D80176
:1010F000C801880F991FFC01EC57FE4FDC01AC5A68
:10110000BE4F6D917C9140818DE093E00E94D500AF
:101110000E9417034090D1015090D2016090D301FA
:101120007090D4019B01AC01241935094609570977
:1011300029013A0134E14316510461047104C0F0FD
:101140006093D1017093D2018093D3019093D40125
:10115000C801880F991FFC01EC57FE4FDC01AC5F02
:10116000BE4F6D917C91408187E093E00E94D50055
:101170000F5F1F4F1093F6010093F50119A28E0126
:101180000F5D1F4FC701B601A50194010E942E09F2
:101190008C2D9AE0299F80191124015011098A3061
:1011A00014F4805D01C0895CF801808369017A01D3
:1011B000232B242B252B31F70115110561F001900C
:1011C0000020E9F73197AF01401B510BB80185EEC4
:1011D00092E00E94EF026DE085EE92E00E945202E2
:1011E0006AE085EE92E00E945202F5CD0E94EB0289
:1011F000E8CDF8940C947109052E97FB1EF4009429
:101200000E94130957FD07D00E942E0907FC03D046
:101210004EF40C94130950954095309521953F4F0D
:101220004F4F5F4F089590958095709561957F4FD2
:101230008F4F9F4F08950E945009A59F900DB49F16
:10124000900DA49F800D911D11240895B7FF0C945B
:101250001B090E941B09821B930B0895A1E21A2E01
:10126000AA1BBB1BFD010DC0AA1FBB1FEE1FFF1F4A
:10127000A217B307E407F50720F0A21BB30BE40B9A
:10128000F50B661F771F881F991F1A9469F76095E1
:101290007095809590959B01AC01BD01CF0108959B
:1012A000A29FB001B39FC001A39F700D811D1124A7
:1012B000911DB29F700D811D1124911D0895991BE0
:1012C00079E004C0991F961708F0961B881F7A953D
:1012D000C9F780950895EE0FFF1F0590F491E02D5A
:0612E0000994F894FFCF11
:1012E60000642D6400000000000000000000000003
:1012F60000000500000038003800380038003800CB
:101306003800380000000000000000000000000067
:1013160000002D000000000000000000000000009A
:1013260000000400000018161816181618161816CD
:10133600181618160000000000000000000000004B
:1013460000003800900290029002900290029002F3
:10135600900290023C003C003C003C003C003C00FB
:101366003C003C00230023003C004A004A00610088
:10137600610061004D2400004D2400004D24000052
:101386004D240000973300007B8B00007B8B000010
:10139600BEF00000BEF00000000000005202EF02A6
:0813A600DB029F02BF0294026A
:00000001FF
