:100000000C945D000C9485000C9485000C94850084
:100010000C9485000C9485000C9485000C9485004C
:100020000C9485000C9485000C9485000C9486013A
:100030000C9485000C9485000C9485000C9485002C
:100040000C94EE020C9485000C9485000C948500B1
:100050000C9485000C9485000C9485000C9485000C
:100060000C9485000C9485000000000024002700FB
:100070002A0000000000250028002B0004040404CE
:100080000404040402020202020203030303030342
:10009000010204081020408001020408102001021F
:1000A00004081020000000070002010000030406FD
:1000B0000000000000000000710411241FBECFEFFB
:1000C000D8E0DEBFCDBF11E0A0E0B1E0E8E0FAE0AB
:1000D00002C005900D92A430B107D9F721E0A4E049
:1000E000B1E001C01D92A537B207E1F710E0CDE500
:1000F000D0E004C02197FE010E94FC04CC35D1075A
:10010000C9F70E9438030C9492040C9400008F925B
:100110009F92AF92BF92CF92DF92EF92FF92809127
:10012000710128E532E06901C81AD10887FDD3942E
:10013000CC0CDD1CCC0CDD1C0D2C000CEE08FF08DB
:100140008091700128E830E04901881A910887FD04
:100150009394880C991C880C991C092C000CAA08F3
:10016000BB08E0916F01EF3FA9F088E0E89FF00144
:100170001124E15FFE4F2181328183E0220F331F82
:100180008A95E1F794E0369527959A95E1F72E5FE9
:100190003F4F02C020E030E02F5F3F4FC901330FD7
:1001A000AA0BBB0B9C01AD01281939094A095B094F
:1001B000A4EBB0E00E94B404A70196012819390904
:1001C0004A095B090E949504C901FF90EF90DF90F6
:1001D000CF90BF90AF909F908F90089590E0FC01DA
:1001E000EC55FF4F2491FC01E057FF4F3491FC0187
:1001F000E458FF4FE491EE2309F43CC0222339F187
:10020000233091F038F42130A9F0223001F584B583
:100210008F7D12C0263091F02730A1F02430B9F440
:10022000809180008F7D03C0809180008F778093C4
:1002300080000DC084B58F7784BD09C08091B00067
:100240008F7703C08091B0008F7D8093B000F0E085
:10025000EE0FFF1FEE58FF4FA591B4919FB7F89492
:10026000611104C08C913095382302C0EC913E2B73
:100270003C939FBF08953FB7F894809109019091F6
:100280000A01A0910B01B0910C0126B5A89B05C0F5
:100290002F3F19F00196A11DB11D3FBFBA2FA92F05
:1002A000982F8827820F911DA11DB11DBC01CD0182
:1002B00042E0660F771F881F991F4A95D1F708956E
:1002C000CF92DF92EF92FF92CF93DF936B017C018D
:1002D0000E943B01EB01C114D104E104F10479F067
:1002E0000E943B016C1B7D0B683E7340A0F381E0D4
:1002F000C81AD108E108F108C851DC4FECCFDF91F2
:10030000CF91FF90EF90DF90CF9008951F920F92C2
:100310000FB60F9211242F933F934F935F936F93D8
:100320007F938F939F93AF93BF93EF93FF938091AE
:100330000E0187FF05C0109285001092840016C040
:1003400020910E01022E000C330B80910D0190E0E4
:10035000281739075CF4E0910E0128E0E202F00171
:100360001124E15FFE4F808186FD15C080910E0152
:100370008F5F80930E0120910E01022E000C330B33
:1003800080910D0190E0281739079CF480910E01AF
:100390008C3034F10EC0E0910E0128E0E202F00151
:1003A0001124E15FFE4F808160E08F730E94EE00B8
:1003B000DDCF809184009091850084349C4918F4AD
:1003C00080E49CE905C080918400909185000496AA
:1003D00090938900809388008FEF80930E01EDC089
:1003E000E0910E0188E0E802F0011124E15FFE4F88
:1003F0008781882309F4B5C0A0910E01E0910E0118
:1004000088E0A802D0011124A15FBE4F28E0E202DB
:10041000F0011124E15FFE4F15962D913C91169746
:1004200081819281A0910E01E0910E0182179307C4
:1004300008F04BC088E0E802F0011124E15FFE4FB4
:1004400028E0A202D0011124A15FBE4F17962C9183
:1004500081819281820F911D92838183A0910E01EF
:10046000E0910E0188E0A802D0011124A15FBE4FE7
:1004700028E0E202F0011124E15FFE4F15962D9174
:100480003C911697818192818217930708F469C085
:10049000E0910E01A0910E0188E0E802F001112424
:1004A000E15FFE4F28E0A202D0011124A15FBE4F00
:1004B00015968D919C91169792838183E0910E0100
:1004C00088E0E802F001112449C028E0E202F001CE
:1004D0001124E15FFE4F88E0A802D0011124A15F42
:1004E000BE4F17962C9181819281821B9109928334
:1004F0008183A0910E01E0910E0128E0A202D001BB
:100500001124A15FBE4F88E0E802F0011124E15FF1
:10051000FE4F15962D913C91169781819281281757
:100520003907F8F0E0910E01A0910E0128E0E202F7
:10053000F0011124E15FFE4F88E0A802D0011124F0
:10054000A15FBE4F15968D919C91169792838183E2
:10055000E0910E0128E0E202F0011124E15FFE4F7C
:1005600017822091840030918500E0910E0188E08F
:10057000E802F0011124E15FFE4F81819281820F38
:10058000931F9093890080938800E0910E0128E0EA
:10059000E202F0011124E15FFE4F808186FF0DC071
:1005A000E0910E0188E0E802F0011124E15FFE4FC6
:1005B000808161E08F730E94EE00FF91EF91BF9107
:1005C000AF919F918F917F916F915F914F913F91EB
:1005D0002F910F900FBE0F901F9018951F920F92A2
:1005E0000FB60F9211242F933F938F939F93AF9346
:1005F000BF938091050190910601A0910701B091F0
:1006000008013091040123E0230F2D3720F40196D7
:10061000A11DB11D05C026E8230F0296A11DB11D25
:10062000209304018093050190930601A093070194
:10063000B09308018091090190910A01A0910B01EA
:10064000B0910C010196A11DB11D809309019093F9
:100650000A01A0930B01B0930C01BF91AF919F9140
:100660008F913F912F910F900FBE0F901F90189573
:10067000789484B5826084BD84B5816084BD85B57D
:10068000826085BD85B5816085BD80916E00816089
:1006900080936E001092810080918100826080932F
:1006A0008100809181008160809381008091800031
:1006B0008160809380008091B10084608093B1005C
:1006C0008091B00081608093B00080917A00846056
:1006D00080937A0080917A00826080937A00809182
:1006E0007A00816080937A0080917A00806880939C
:1006F0007A001092C10080916F018C3008F062C0C6
:10070000E9E9F0E02491E5E8F0E08491882399F0AC
:1007100090E0880F991FFC01E859FF4FA591B49113
:10072000FC01EE58FF4F859194918FB7F894EC91AE
:10073000E22BEC938FBF80916F0128E0829FF00144
:100740001124E15FFE4F9081907C9960908310921C
:100750007001109271016CE00E94F0043CE0839FF4
:10076000A001112420E030E0FA01E20FF31FB3E012
:10077000EE0FFF1FBA95E1F7E15FFE4F908196FD06
:1007800016C02F5F3F4F2C30310571F781110FC01C
:100790001092800082E08093810010928500109278
:1007A0008400B19A80916F00826080936F00E09125
:1007B0006F0148E0E49FF0011124E15FFE4F80816A
:1007C0008064808304EB10E0C8E5D2E075E0B72ECA
:1007D000E8E8EE2EF12CFEE1AF2EA0E0CA2EA0E05C
:1007E000DA2E80916F0158E0859FF0011124E15FBE
:1007F000FE4F148303838C30A0F4809171019E011D
:10080000281B310987FD3395C90163E0880F991FC3
:100810006A95E1F704972FB7F89496838583B7829A
:100820002FBF0E948700843B910539F065E070E09E
:1008300080E090E00E946001F4CF6FE070E080E023
:1008400090E00E94600180916F0138E0839FF00189
:100850001124DF01A15FBE4F14961C921E921397C4
:100860008C3038F580917101AE01481B510987FD2C
:100870005395CA0120917001A701421B510927FD20
:1008800053959A01220F331F220F331F880F991F90
:10089000880F991F281739070CF4C9012FB7F8944E
:1008A000E15FFE4F0297880F991F96838583A78289
:1008B0002FBF0E948700892B39F065E070E080E04F
:1008C00090E00E946001F5CF6FE070E080E090E082
:1008D0000E946001C114D10409F483CF0E9400007A
:1008E00080CFE0910D01EC30C8F481E08E0F809351
:1008F0000D01E0936F0188E0E89FF0011124E15FB2
:10090000FE4F88EB9BE0928381831092740180E01C
:1009100091E0909373018093720108958FEF80931B
:100920006F010895F8940C940205052E97FB1EF4B0
:1009300000940E94AC0457FD07D00E94BF0407FC3E
:1009400003D04EF40C94AC0450954095309521950D
:100950003F4F4F4F5F4F08959095809570956195EB
:100960007F4F8F4F9F4F08950E94E104A59F900DE8
:10097000B49F900DA49F800D911D11240895A1E2B4
:100980001A2EAA1BBB1BFD010DC0AA1FBB1FEE1F09
:10099000FF1FA217B307E407F50720F0A21BB30B54
:1009A000E40BF50B661F771F881F991F1A9469F7D0
:1009B00060957095809590959B01AC01BD01CF012C
:1009C0000895A29FB001B39FC001A39F700D811D28
:1009D0001124911DB29F700D811D1124911D089548
:1009E000991B79E004C0991F961708F0961B881F81
:1009F0007A95C9F780950895EE0FFF1F0590F49141
:080A0000E02D0994F894FFCFEA
:040A080000642D64F5
:00000001FF
