:100000000C945D000C9485000C9485000C94850084
:100010000C9485000C9485000C9485000C9485004C
:100020000C9485000C9485000C9485000C94A5011B
:100030000C9485000C9485000C9485000C9485002C
:100040000C9466020C9485000C9485000C94850039
:100050000C9485000C9485000C9485000C9485000C
:100060000C9485000C9485000000000024002700FB
:100070002A0000000000250028002B0004040404CE
:100080000404040402020202020203030303030342
:10009000010204081020408001020408102001021F
:1000A00004081020000000070002010000030406FD
:1000B0000000000000000000960311241FBECFEFD7
:1000C000D8E0DEBFCDBF11E0A0E0B1E0E8E5F8E0A8
:1000D00002C005900D92A030B107D9F721E0A0E051
:1000E000B1E001C01D92A433B207E1F710E0CDE505
:1000F000D0E004C02197FE010E942404CC35D10732
:10010000C9F70E94B0020C94B2030C940000CF9285
:10011000DF92EF92FF92DC01A03282E0B8070CF090
:100120003EC0B7FD06C0A53BB1052CF0A4EBB0E086
:1001300002C0A0E0B0E08091320128E830E069011F
:10014000C81AD10887FDD394CC0CDD1CCC0CDD1C67
:100150000D2C000CEE08FF088091330128E532E0F9
:10016000281B310987FD3395220F331F220F331FC0
:10017000A901330F660B770B9A01AB012C193D09CE
:100180004E095F090E94DF0324EB30E040E050E0BD
:100190000E94B503C20ED31EE41EF51ED601909137
:1001A00031019C3098F58091320148E850E0481BBD
:1001B000510987FD5395440F551F440F551FA41730
:1001C000B5078CF08091330128E532E0281B310916
:1001D00087FD3395220F331F220F331FAD012A17DE
:1001E0003B070CF4A9012FB7F894892F90E0FC018C
:1001F000EE0FFF1F8E0F9F1FFC01E35FFE4F42506B
:100200005109440F551F528341832FBFFF90EF9038
:10021000DF90CF90089590E0FC01EC55FF4F2491C2
:10022000FC01E057FF4F3491FC01E458FF4FE4918B
:10023000EE2309F43CC0222339F1233091F038F445
:100240002130A9F0223001F584B58F7D12C026300F
:1002500091F02730A1F02430B9F4809180008F7D97
:1002600003C0809180008F77809380000DC084B59B
:100270008F7784BD09C08091B0008F7703C08091D3
:10028000B0008F7D8093B000F0E0EE0FFF1FEE58BE
:10029000FF4FA591B4919FB7F894611104C08C9160
:1002A0003095382302C0EC913E2B3C939FBF0895BC
:1002B0003FB7F8948091050190910601A091070144
:1002C000B091080126B5A89B05C02F3F19F00196F3
:1002D000A11DB11D3FBFBA2FA92F982F8827820FCC
:1002E000911DA11DB11DBC01CD0142E0660F771F1C
:1002F000881F991F4A95D1F70895CF92DF92EF9208
:10030000FF92CF93DF930E945801EB018FE0C82E3C
:10031000D12CE12CF12C0E9458016C1B7D0B683E06
:100320007340C8F381E0C81AD108E108F108C85148
:10033000DC4FC114D104E104F10469F7DF91CF91DE
:10034000FF90EF90DF90CF9008951F920F920FB61D
:100350000F9211242F933F934F935F936F937F934B
:100360008F939F93AF93BF93EF93FF9380910C0173
:1003700087FF05C010928500109284001BC0209159
:100380000C01022E000C330B80910B0190E028171A
:10039000390784F480910C01082E000C990BFC01A4
:1003A000EE0FFF1F8E0F9F1FFC01E35FFE4F80814A
:1003B00086FD15C080910C018F5F80930C01209108
:1003C0000C01022E000C330B80910B0190E02817DA
:1003D0003907C4F480910C018C3064F113C0809112
:1003E0000C01082E000C990BFC01EE0FFF1F8E0F65
:1003F0009F1FFC01E35FFE4F808160E08F730E94CE
:100400000B01D8CF809184009091850004968034B0
:100410009C4918F480E49CE905C080918400909187
:100420008500049690938900809388008FEF8093D5
:100430000C013BC0209184003091850080910C011B
:10044000082E000C990BFC01EE0FFF1F8E0F9F1F53
:10045000FC01E35FFE4F81819281820F931F909395
:1004600089008093880080910C01082E000C990B64
:10047000FC01EE0FFF1F8E0F9F1FFC01E35FFE4F7D
:10048000808186FF12C080910C01082E000C990B10
:10049000FC01EE0FFF1F8E0F9F1FFC01E35FFE4F5D
:1004A000808161E08F730E940B01FF91EF91BF91FA
:1004B000AF919F918F917F916F915F914F913F91FC
:1004C0002F910F900FBE0F901F9018951F920F92B3
:1004D0000FB60F9211242F933F938F939F93AF9357
:1004E000BF938091010190910201A0910301B0910D
:1004F00004013091000123E0230F2D3720F40196F1
:10050000A11DB11D05C026E8230F0296A11DB11D36
:10051000209300018093010190930201A0930301B5
:10052000B09304018091050190910601A09107010B
:10053000B09108010196A11DB11D80930501909312
:100540000601A0930701B0930801BF91AF919F915D
:100550008F913F912F910F900FBE0F901F90189584
:10056000789484B5826084BD84B5816084BD85B58E
:10057000826085BD85B5816085BD80916E0081609A
:1005800080936E0010928100809181008260809340
:100590008100809181008160809381008091800042
:1005A0008160809380008091B10084608093B1006D
:1005B0008091B00081608093B00080917A00846067
:1005C00080937A0080917A00826080937A00809193
:1005D0007A00816080937A0080917A0080688093AD
:1005E0007A001092C100809131018C3008F068C00F
:1005F000E9E9F0E02491E5E8F0E08491882399F0BE
:1006000090E0880F991FFC01E859FF4FA591B49124
:10061000FC01EE58FF4F859194918FB7F894EC91BF
:10062000E22BEC938FBF80913101E82FF0E09F0126
:10063000220F331FE20FF31FE35FFE4F9081907C88
:100640009960908310923201109233016CE00E9405
:1006500018049CE0899FB001112440E050E09B0108
:10066000240F351FF901EE0FFF1F2E0F3F1FF90159
:10067000E35FFE4F908196FD16C04F5F5F4F4C3099
:10068000510569F781110FC01092800082E08093BC
:1006900081001092850010928400B19A80916F00C1
:1006A000826080936F00E0913101F0E0CF01880F0C
:1006B000991FE80FF91FE35FFE4F808180648083FC
:1006C00000E010E084EBE82EF12C10920A01109269
:1006D0000901C0910901D0910A01C53BD1055CF423
:1006E000CE010E9487000E947D012196D0930A01CD
:1006F000C0930901EECFF0920A01E0920901C09186
:100700000901D0910A01D7FD0BC0CE010E948700DC
:100710000E947D012197D0930A01C0930901EFCF78
:100720000115110591F20E940000CFCF80910B01BD
:100730008C30A0F491E0980F90930B0180933101DD
:1007400090E0FC01EE0FFF1F8E0F9F1FFC01E35F87
:10075000FE4F88EB9BE09283818308958FEF809317
:1007600031010895F8940C942A04052E97FB1EF489
:1007700000940E94CC0357FD07D00E94E70307FCBA
:1007800003D04EF40C94CC035095409530952195B0
:100790003F4F4F4F5F4F08959095809570956195AD
:1007A0007F4F8F4F9F4F08950E940904A59F900D82
:1007B000B49F900DA49F800D911D11240895B7FF43
:1007C0000C94D4030E94D403821B930B0895A1E2DE
:1007D0001A2EAA1BBB1BFD010DC0AA1FBB1FEE1FBB
:1007E000FF1FA217B307E407F50720F0A21BB30B06
:1007F000E40BF50B661F771F881F991F1A9469F782
:1008000060957095809590959B01AC01BD01CF01DD
:100810000895A29FB001B39FC001A39F700D811DD9
:100820001124911DB29F700D811D1124911D0895F9
:10083000991B79E004C0991F961708F0961B881F32
:100840007A95C9F780950895EE0FFF1F0590F491F2
:08085000E02D0994F894FFCF9C
:00000001FF
